:020000040800F2
:10000000005000209D150008911300089913000866
:10001000A1130008A9130008B11300080000000094
:10002000000000000000000000000000B9130008FC
:10003000C513000800000000D1130008DD130008FC
:10004000E5150008E5150008E5150008E5150008A8
:10005000E5150008E5150008E9130008FB13000882
:10006000E5150008E5150008E5150008E515000888
:10007000E5150008E5150008E5150008E515000878
:10008000E5150008E5150008E5150008E515000868
:10009000E5150008E5150008E5150008E515000858
:1000A000E5150008E5150008E5150008E515000848
:1000B000E5150008E5150008E5150008E515000838
:1000C000E5150008E5150008E5150008E515000828
:1000D000E5150008E5150008E5150008E515000818
:1000E000E5150008E5150008E5150008000000000A
:1000F0000000000000000000000000000000000000
:0C01000000000000000000005FF808F1A3
:1001100010B5054C237833B9044B13B10448AFF341
:1001200000800123237010BDD401002000000000D6
:10013000FC8B000808B5034B1BB103490348AFF320
:10014000008008BD00000000D8010020FC8B0008E2
:10015000034613F8012B002AFBD1181A0138704707
:1001600081F0004102E000BF83F0004330B54FEA68
:1001700041044FEA430594EA050F08BF90EA020FD5
:100180001FBF54EA000C55EA020C7FEA645C7FEA68
:10019000655C00F0E2804FEA5454D4EB5555B8BF8B
:1001A0006D420CDD2C4480EA020281EA030382EAFC
:1001B000000083EA010180EA020281EA0303362D8E
:1001C00088BF30BD11F0004F4FEA01314FF4801C61
:1001D0004CEA113102D0404261EB410113F0004F73
:1001E0004FEA03334CEA133302D0524263EB43032A
:1001F00094EA050F00F0A780A4F10104D5F1200EC8
:100200000DDB02FA0EFC22FA05F2801841F1000122
:1002100003FA0EF2801843FA05F359410EE0A5F1F6
:1002200020050EF1200E012A03FA0EFC28BF4CF027
:10023000020C43FA05F3C01851EBE37101F00045DD
:1002400007D54FF0000EDCF1000C7EEB00006EEBEA
:100250000101B1F5801F1BD3B1F5001F0CD3490874
:100260005FEA30004FEA3C0C04F101044FEA4452CB
:1002700012F5800F80F09A80BCF1004F08BF5FEA52
:10028000500C50F1000041EB045141EA050130BD32
:100290005FEA4C0C404141EB0101013C28BFB1F544
:1002A000801FE9D291F0000F04BF01460020B1FA8F
:1002B00081F308BF2033A3F10B03B3F120020CDA62
:1002C0000C3208DD02F1140CC2F10C0201FA0CF040
:1002D00021FA02F10CE002F11402D8BFC2F1200CA5
:1002E00001FA02F120FA0CFCDCBF41EA0C0190405B
:1002F000E41AA2BF01EB0451294330BD6FEA0404A4
:100300001F3C1CDA0C340EDC04F11404C4F120028E
:1003100020FA04F001FA02F340EA030021FA04F3A0
:1003200045EA030130BDC4F10C04C4F1200220FAF7
:1003300002F001FA04F340EA0300294630BD21FA35
:1003400004F0294630BD94F0000F83F4801306BFFB
:1003500081F480110134013D4EE77FEA645C18BFEF
:100360007FEA655C29D094EA050F08BF90EA020F86
:1003700005D054EA000C04BF1946104630BD91EA7E
:10038000030F1EBF0021002030BD5FEA545C05D181
:100390004000494128BF41F0004130BD14F58004C0
:1003A0003CBF01F5801130BD01F0004545F0FE4134
:1003B00041F470014FF0000030BD7FEA645C1ABF69
:1003C000194610467FEA655C1CBF0B46024650EAA0
:1003D000013406BF52EA033591EA030F41F40021CC
:1003E00030BD00BF90F0000F04BF0021704730B552
:1003F0004FF4806404F132044FF000054FF0000127
:1004000050E700BF90F0000F04BF0021704730B5E7
:100410004FF4806404F1320410F0004548BF4042BC
:100420004FF000013EE700BF42004FEAE2014FEA11
:1004300031014FEA02701FBF12F07F4393F07F4FEC
:1004400081F06051704732F07F4208BF704793F0EF
:100450007F4F04BF41F40021704730B54FF4607402
:1004600001F0004521F000411CE700BF50EA010205
:1004700008BF704730B54FF000050AE050EA0102AE
:1004800008BF704730B511F0004502D5404261EB1E
:1004900041014FF4806404F132045FEA915C3FF45F
:1004A000D8AE4FF003025FEADC0C18BF03325FEAFC
:1004B000DC0C18BF033202EBDC02C2F1200300FAAD
:1004C00003FC20FA02F001FA03FE40EA0E0021FAD2
:1004D00002F11444BDE600BF70B54FF0FF0C4CF4C0
:1004E000E06C1CEA11541DBF1CEA135594EA0C0F72
:1004F00095EA0C0F00F0DEF82C4481EA030621EAAD
:100500004C5123EA4C5350EA013518BF52EA0335E7
:1005100041F4801143F4801338D0A0FB02CE4FF099
:100520000005E1FB02E506F00042E0FB03E54FF0C9
:100530000006E1FB03569CF0000F18BF4EF0010EC1
:10054000A4F1FF04B6F5007F64F5407404D25FEABD
:100550004E0E6D4146EB060642EAC62141EA555170
:100560004FEAC52040EA5E504FEACE2EB4F1FD0CB2
:1005700088BFBCF5E06F1ED8BEF1004F08BF5FEA30
:10058000500E50F1000041EB045170BD06F00046E2
:1005900046EA010140EA020081EA0301B4EB5C048F
:1005A000C2BFD4EB0C0541EA045170BD41F4801187
:1005B0004FF0000E013C00F3AB8014F1360FDEBFAC
:1005C000002001F0004170BDC4F10004203C35DA88
:1005D0000C341BDC04F11404C4F1200500FA05F30B
:1005E00020FA04F001FA05F240EA020001F00042AC
:1005F00021F0004110EBD37021FA04F642EB060122
:100600005EEA430E08BF20EAD37070BDC4F10C044B
:10061000C4F1200500FA04F320FA05F001FA04F20F
:1006200040EA020001F0004110EBD37041F10001FB
:100630005EEA430E08BF20EAD37070BDC4F1200506
:1006400000FA05F24EEA020E20FA04F301FA05F26E
:1006500043EA020321FA04F001F0004121FA04F216
:1006600020EA020000EBD3705EEA430E08BF20EAE6
:10067000D37070BD94F0000F0FD101F00046400020
:1006800041EB010111F4801F08BF013CF7D041EAA2
:10069000060195F0000F18BF704703F000465200A6
:1006A00043EB030313F4801F08BF013DF7D043EA77
:1006B0000603704794EA0C0F0CEA135518BF95EA2D
:1006C0000C0F0CD050EA410618BF52EA4306D1D1B4
:1006D00081EA030101F000414FF0000070BD50EAD3
:1006E000410606BF1046194652EA430619D094EA5D
:1006F0000C0F02D150EA013613D195EA0C0F05D147
:1007000052EA03361CBF104619460AD181EA03019A
:1007100001F0004141F0FE4141F470014FF0000052
:1007200070BD41F0FE4141F4780170BD70B54FF0ED
:10073000FF0C4CF4E06C1CEA11541DBF1CEA13556D
:1007400094EA0C0F95EA0C0F00F0A7F8A4EB05044F
:1007500081EA030E52EA03354FEA013100F0888046
:100760004FEA03334FF0805545EA131343EA12630F
:100770004FEA022245EA111545EA10654FEA0026C4
:100780000EF000419D4208BF964244F1FD0404F57D
:10079000407402D25B084FEA3202B61A65EB0305D9
:1007A0005B084FEA32024FF480104FF4002CB6EB96
:1007B000020E75EB030E22BFB61A754640EA0C0016
:1007C0005B084FEA3202B6EB020E75EB030E22BF56
:1007D000B61A754640EA5C005B084FEA3202B6EB97
:1007E000020E75EB030E22BFB61A754640EA9C0056
:1007F0005B084FEA3202B6EB020E75EB030E22BF26
:10080000B61A754640EADC0055EA060E18D04FEAE3
:10081000051545EA16754FEA06164FEAC30343EA83
:1008200052734FEAC2025FEA1C1CC0D111F4801F50
:100830000BD141EA00014FF000004FF0004CB6E749
:1008400011F4801F04BF01430020B4F1FD0C88BFE8
:10085000BCF5E06F3FF6AFAEB5EB030C04BFB6EBF3
:10086000020C5FEA500C50F1000041EB045170BDE6
:100870000EF0004E4EEA113114EB5C04C2BFD4EB13
:100880000C0541EA045170BD41F480114FF0000E97
:10089000013C90E645EA060E8DE60CEA135594EA13
:1008A0000C0F08BF95EA0C0F3FF43BAF94EA0C0F16
:1008B0000AD150EA01347FF434AF95EA0C0F7FF48B
:1008C00025AF104619462CE795EA0C0F06D152EADF
:1008D00003353FF4FDAE1046194622E750EA4106C3
:1008E00018BF52EA43067FF4C5AE50EA41047FF4D4
:1008F0000DAF52EA43057FF4EBAE12E74FF0FF3C39
:1009000006E000BF4FF0010C02E000BF4FF0010C09
:100910004DF804CD4FEA410C7FEA6C5C4FEA430C82
:1009200018BF7FEA6C5C1BD001B050EA410C0CBFD1
:1009300052EA430C91EA030F02BF90EA020F002033
:10094000704710F1000F91EA030F58BF994208BF9A
:1009500090422CBFD8176FEAE37040F00100704757
:100960004FEA410C7FEA6C5C02D150EA013C07D1AE
:100970004FEA430C7FEA6C5CD6D152EA033CD3D0F9
:100980005DF8040B704700BF8446104662468C46F3
:100990001946634600E000BF01B5FFF7B7FF002826
:1009A00048BF10F1000F01BD4DF808EDFFF7F4FF4F
:1009B0000CBF012000205DF808FB00BF4DF808EDDA
:1009C000FFF7EAFF34BF012000205DF808FB00BFFD
:1009D0004DF808EDFFF7E0FF94BF012000205DF81F
:1009E00008FB00BF4DF808EDFFF7CEFF94BF0120D4
:1009F00000205DF808FB00BF4DF808EDFFF7C4FFCD
:100A000034BF012000205DF808FB00BF4FEA410C15
:100A10007FEA6C5C02D150EA013C0AD14FEA430CF8
:100A20007FEA6C5C02D152EA033C02D14FF0000035
:100A300070474FF0010070474FEA410212F5001273
:100A400015D211D56FF47873B3EB625212D94FEA15
:100A5000C12343F0004343EA505311F0004F23FAFF
:100A600002F018BF404270474FF00000704750EA54
:100A7000013005D111F0004008BF6FF00040704711
:100A80004FF00000704700BF4A0011D212F500126B
:100A900011D20DD56FF47873B3EB62520ED44FEAD6
:100AA000C12343F0004343EA505323FA02F0704756
:100AB0004FF00000704750EA013002D14FF0FF3094
:100AC00070474FF0000070474FEA4102B2F1E04337
:100AD00024BFB3F5001CDCF1FE5C0DD901F0004C25
:100AE0004FEAC0024CEA5070B2F1004F40EB830075
:100AF00008BF20F00100704711F0804F21D113F1A1
:100B00003872BCBF01F00040704741F480114FEAD9
:100B10005252C2F11802C2F1200C10FA0CF320FA62
:100B200002F018BF40F001004FEAC1234FEAD3237F
:100B300003FA0CFC40EA0C0023FA02F34FEA4303E9
:100B4000CCE77FEA625307D150EA01331EBF4FF072
:100B5000FE4040F44000704701F0004040F0FE408D
:100B600040F40000704700BF38B50022002304465F
:100B70000D46FFF723FF28B920462946BDE8384037
:100B800000F00AB8204605F1004100F005F84042A7
:100B900061EB410138BD00BFD0B500220B4B0646CA
:100BA0000F46FFF799FCFFF76FFF0446FFF71AFCAB
:100BB0000022074BFFF790FC02460B4630463946B1
:100BC000FFF7D2FAFFF760FF2146D0BD0000F03DED
:100BD0000000F0410000000080B584B000AF00F0DC
:100BE00003FD00F0EFF800F029FA00F047F900F0FB
:100BF00083F90021684802F085FA674B1B684FF4BF
:100C0000FA625A63002003F00FFA002003F08CF917
:100C100001220121002003F0C7F96049002003F000
:100C200075FC4FF47A7000F041FD5D4800F03AFE2B
:100C30003B4600221A605A609A600023FB7300232F
:100C4000BB814FF4FA7000F031FD002003F06CF925
:100C5000544B1B78022B00F08580022BF1DC002B1B
:100C600002D0012B74D08BE001220121002003F07F
:100C70009BF94D49002003F049FC00F093FA4FF036
:100C8000FF31474800F0BCFE454800F0BFFF034677
:100C9000BB81BB89DBB203F00F03FB73BB89184632
:100CA000FFF7B0FB38A3D3E90023FFF73FFD02466F
:100CB0000B461046194636A3D3E90023FFF70CFC78
:100CC00002460B463846394904F066FB01220221F0
:100CD000002003F069F93649002003F017FC3B4679
:100CE0001946002003F012FCFB7B03F00103DBB28A
:100CF0001A464FF480712F4801F0BAFBFB7B5B1062
:100D0000DBB203F00103DBB21A464FF400712A484C
:100D100001F0AEFBFB7B9B10DBB203F00103DBB207
:100D20001A464FF48061244801F0A2FBFB7BDB10E4
:100D3000DBB203F00103DBB21A464FF400611E4838
:100D400001F096FB144B1B684FF47A725A6317E05C
:100D50001A49002003F0DAFB0F4B1B684FF4FA62CC
:100D60005A630DE01649002003F0D0FB4FF4805089
:100D700000F0E4F9084B1B684FF4FA725A6300BFA5
:100D80005FE700BFAFF300800000000000FEAF404F
:100D90006666666666660A4024020020188C0008B3
:100DA000F4010020F0010020248C0008348C00089D
:100DB0003C8C0008000C014000080140448C0008F5
:100DC000548C000880B594B000AF07F128032822A6
:100DD0000021184604F045FB07F1140300221A60B5
:100DE0005A609A60DA601A613B1D00221A605A60EC
:100DF0009A60DA600123BB624FF48033FB62002308
:100E00003B630123BB6302237B644FF48033BB64E9
:100E10004FF4E013FB6407F12803184601F062FB6E
:100E20000346002B01D000F0EDF90F237B61022374
:100E3000BB610023FB614FF480633B6200237B6254
:100E400007F114030221184601F0CEFD0346002BE2
:100E500001D000F0D7F902237B604FF40043FB6020
:100E60003B1D184601F03AFF0346002B01D000F06D
:100E7000C9F900BF5037BD4680BD000080B584B0C1
:100E800000AF3B1D00221A605A609A60184B194A45
:100E90001A60174B00229A60154B01221A73144BEB
:100EA00000221A75124B4FF46022DA61104B0022B7
:100EB0005A600F4B01221A610D4800F01BFC0346DB
:100EC000002B01D000F09EF900237B600123BB6062
:100ED0000023FB603B1D1946054800F0A3FE0346B6
:100EE000002B01D000F08EF900BF1037BD4680BD49
:100EF000F40100200024014080B596B000AF07F156
:100F0000480300221A605A609A60DA6007F14003D1
:100F100000221A605A6007F1240300221A605A6006
:100F20009A60DA601A615A619A613B1D20220021A1
:100F3000184604F096FA3F4B3F4A1A603D4B40F288
:100F400037425A603B4B00229A603A4B40F2CF72D4
:100F5000DA60384B00221A61364B00225A61354B59
:100F600000229A61334802F025F80346002B01D095
:100F700000F048F94FF48053BB6407F14803194669
:100F80002C4802F023FA0346002B01D000F03AF976
:100F9000284802F05EF80346002B01D000F032F939
:100FA00000233B6400237B6407F14003194621487A
:100FB00002F084FD0346002B01D000F023F96023EA
:100FC0007B620023BB620023FB6200233B630023A0
:100FD0007B630023BB630023FB6307F12403002230
:100FE0001946144802F030F90346002B01D000F0F6
:100FF00009F900237B600023BB600023FB60002312
:101000003B6100237B614FF40053BB6100233B62D3
:101010003B1D1946074802F0AFFD0346002B01D0E7
:1010200000F0F0F8034800F07FF900BF5837BD46E4
:1010300080BD00BF24020020002C014080B588B094
:1010400000AF07F1100300221A605A609A60DA605C
:10105000364B9B69354A43F020039361334B9B69C0
:1010600003F02003FB60FB68304B9B692F4A43F081
:10107000040393612D4B9B6903F00403BB60BB68C1
:101080002A4B9B69294A43F008039361274B9B69CC
:1010900003F008037B607B68002247F6F661244872
:1010A00001F0E6F900224FF48071224801F0E0F9E6
:1010B00047F6F6633B6101237B610023BB6102239A
:1010C000FB6107F110031946194801F04DF803239D
:1010D0003B61194B7B610123BB6107F1100319468A
:1010E000144801F041F84FF480733B6101237B61A8
:1010F0000023BB610223FB6107F1100319460D4871
:1011000001F032F800220021062000F0F6FF062050
:1011100001F00FF800220121072000F0EEFF072068
:1011200001F007F800BF2037BD4680BD0010024027
:1011300000080140000C01400000211080B582B081
:1011400000AF0346FB80FB8801221946144801F0DA
:101150008FF94FF4FA7000F0A9FAFB8800221946C3
:101160000F4801F085F94FF4FA7000F09FFAFB8800
:10117000012219460A4801F07BF94FF4FA7000F099
:1011800095FAFB8800221946054801F071F94FF4E1
:10119000FA7000F08BFA00BF0837BD4680BD00BF73
:1011A0000008014080B500AF4FF48050FFF7C6FF44
:1011B0004FF40050FFF7C2FF4FF48040FFF7BEFF2F
:1011C00000BF80BD80B400AF074B1B78002B03D15C
:1011D000054B01221A7002E0034B00221A7000BF77
:1011E000BD4680BC704700BFF001002080B400AF56
:1011F000034B02221A7000BFBD4680BC704700BF7F
:10120000F001002080B400AF72B600BF00BFFDE760
:1012100080B485B000AF154B9B69144A43F00103BD
:101220009361124B9B6903F00103BB60BB680F4BDA
:10123000DB690E4A43F08053D3610C4BDB6903F04A
:1012400080537B607B680A4B5B68FB60FB6823F024
:10125000E063FB60FB6843F08063FB60044AFB686B
:10126000536000BF1437BD4680BC70470010024079
:101270000000014080B588B000AF786007F110032E
:1012800000221A605A609A60DA607B681B68144A10
:10129000934221D1134B9B69124A43F4007393612B
:1012A000104B9B6903F40073FB60FB680D4B9B695B
:1012B0000C4A43F0040393610A4B9B6903F0040357
:1012C000BB60BB6801233B6103237B6107F1100313
:1012D0001946054800F048FF00BF2037BD4680BDD5
:1012E00000240140001002400008014080B485B095
:1012F00000AF78607B681B68094A93420BD1094BA9
:101300009B69084A43F400639361064B9B6903F4AD
:101310000063FB60FB6800BF1437BD4680BC7047AC
:10132000002C01400010024080B588B000AF78600A
:1013300007F1100300221A605A609A60DA607B6835
:101340001B68104A934218D10F4B9B690E4A43F019
:10135000040393610C4B9B6903F00403FB60FB687F
:101360004FF480733B6102237B610223FB6107F131
:1013700010031946054800F0F7FE00BF2037BD46B0
:1013800080BD00BF002C0140001002400008014059
:1013900080B400AF00BFFDE780B400AF00BFFDE741
:1013A00080B400AF00BFFDE780B400AF00BFFDE731
:1013B00080B400AF00BFFDE780B400AF00BFBD4602
:1013C00080BC704780B400AF00BFBD4680BC704792
:1013D00080B400AF00BFBD4680BC704780B500AF91
:1013E00000F048F900BF80BD80B500AFFFF7EAFE0E
:1013F000012001F055F800BF80BD80B500AFFFF7B8
:10140000F5FE022001F04CF800BF80BD80B400AFB3
:1014100001231846BD4680BC704780B582B000AF3E
:101420007860396004F070F8034616221A604FF0B5
:10143000FF3318460837BD4680BD80B582B000AF87
:1014400078604FF0FF317868FFF7E7FF00BFFDE7F6
:1014500080B586B000AFF860B9607A6000237B6128
:101460000AE0AFF300800146BB685A1CBA60CAB2FA
:101470001A707B6901337B617A697B689A42F0DB81
:101480007B6818461837BD4680BD80B586B000AF72
:10149000F860B9607A6000237B6109E0BB685A1C80
:1014A000BA601B781846AFF300807B6901337B611B
:1014B0007A697B689A42F1DB7B6818461837BD462B
:1014C00080BD80B483B000AF78604FF0FF33184622
:1014D0000C37BD4680BC704780B483B000AF7860E5
:1014E00039603B684FF400525A60002318460C37AD
:1014F000BD4680BC704780B483B000AF78600123E4
:1015000018460C37BD4680BC704780B485B000AF2C
:10151000F860B9607A60002318461437BD4680BC75
:101520007047000080B586B000AF7860144A154B54
:10153000D31A7B617B693B61134B1B68002B02D183
:10154000114B124A1A60104B1A687B6813443A69AF
:101550009A4207D203F0D8FF03460C221A604FF0DC
:10156000FF3309E0084B1B68FB60074B1A687B6878
:101570001344054A1360FB6818461837BD4680BD02
:1015800000500020000400006C020020C003002076
:1015900080B400AF00BFBD4680BC7047FFF7F8FFC6
:1015A0000B480C490C4A002302E0D458C4500433C1
:1015B000C4188C42F9D3094A094C002301E0136096
:1015C0000432A242FBD303F0A5FFFFF705FB7047EF
:1015D00000000020D401002014910008D401002054
:1015E000C0030020FEE7000080B500AF084B1B6879
:1015F000074A43F010031360032000F073FD0F202F
:1016000000F008F8FFF704FE0023184680BD00BF75
:101610000020024080B582B000AF7860124B1A689B
:10162000124B1B7819464FF47A73B3FBF1F3B2FBFC
:10163000F3F3184600F08BFD0346002B01D0012385
:101640000EE07B680F2B0AD8002279684FF0FF303C
:1016500000F053FD064A7B681360002300E001237D
:1016600018460837BD4680BD000000200800002055
:101670000400002080B400AF054B1B781A46054BD0
:101680001B681344034A136000BFBD4680BC70470B
:10169000080000207002002080B400AF024B1B68DD
:1016A0001846BD4680BC70477002002080B584B0EB
:1016B00000AF7860FFF7F0FFB8607B68FB60FB6805
:1016C000B3F1FF3F05D00A4B1B781A46FB68134461
:1016D000FB6000BFFFF7E0FF0246BB68D31AFA6861
:1016E0009A42F7D800BF00BF1037BD4680BD00BF8B
:1016F0000800002080B586B000AF78600023FB753D
:1017000000233B610023BB600023FB607B68002B50
:1017100001D10123BEE07B689B68002B7B689B6A3C
:10172000002B09D17B680022DA627B68002283F8F3
:1017300024207868FFF79EFD786800F0C5FB03461B
:10174000FB757B689B6A03F01003002B40F09980C7
:10175000FB7D002B40F095807B689B6A23F48853C7
:1017600023F0020343F002027B689A627B685A68A6
:101770007B68DB691A437B681B7B5B001343BA6899
:101780001343BB607B689B68B3F5807F03D07B68A5
:101790009B68012B02D14FF4807300E000233A696B
:1017A00013433B617B681B7D012B19D17B681B7B3D
:1017B000002B09D17B689B69013B5A033B691343AA
:1017C00043F400633B610BE07B689B6A43F02002BB
:1017D0007B689A627B68DB6A43F001027B68DA62AD
:1017E0007B681B685B6823F469417B681B683A6906
:1017F0000A435A607B681B689A68284B13407A68D2
:101800001268B9680B4393607B689B68B3F5807F6F
:1018100003D07B689B68012B04D17B681B69013B6B
:101820001B05FB607B681B68DB6A23F470017B6827
:101830001B68FA680A43DA627B681B689A68184B6F
:101840001340BA689A420BD17B680022DA627B6847
:101850009B6A23F0030343F001027B689A6218E05D
:101860007B689B6A23F0120343F010027B689A6244
:101870007B68DB6A43F001027B68DA620123FB7557
:1018800007E07B689B6A43F010027B689A62012341
:10189000FB75FB7D18461837BD4680BDFDF7E1FF9F
:1018A000FE0E1FFF80B584B000AF78600023FB738D
:1018B0007B6893F82430012B01D1022398E07B68E8
:1018C000012283F82420786800F0A4FA0346FB7311
:1018D000FB7B002B40F087807B689B6A23F440737E
:1018E00023F0010343F480727B689A627B681B6873
:1018F000414A934205D1414B5B6803F47023002BAE
:1019000015D17B689B6A23F480127B689A627B689E
:101910001B685B6803F48063002B26D07B689B6A9E
:1019200023F4405343F480527B689A621DE07B6845
:101930009B6A43F480127B689A627B681B682F4A1B
:10194000934204D07B681B682B4A93420DD12B4BEA
:101950005B6803F48063002B07D07B689B6A23F4E9
:10196000405343F480527B689A627B689B6A03F41D
:101970008053002B06D07B68DB6A23F006027B686D
:10198000DA6202E07B680022DA627B68002283F878
:1019900024207B681B686FF002021A607B681B685A
:1019A0009B6803F46023B3F5602F13D17B681B6839
:1019B000114A934205D1114B5B6803F47023002B4D
:1019C00008D17B681B689A687B681B6842F4A00298
:1019D0009A600CE07B681B689A687B681B6842F41D
:1019E00080129A6003E07B68002283F82420FB7B4E
:1019F00018461037BD4680BD002801400024014034
:101A000090B587B000AF7860396000237B61002318
:101A1000FB6000233B61FFF73FFE78617B681B683A
:101A20009B6803F48073002B0BD07B689B6A43F0A8
:101A300020027B689A627B68002283F824200123BD
:101A4000D3E07B681B685B6803F48073002B31D1A3
:101A50007B681B68DB6A03F47003002B2AD121E04A
:101A60003B68B3F1FF3F1DD03B68002B07D0FFF769
:101A700013FE02467B69D31A3A689A4212D27B68F7
:101A80001B681B6803F00203002B0BD17B689B6A69
:101A900043F004027B689A627B68002283F824206A
:101AA0000323A2E07B681B681B6803F00203002B82
:101AB000D6D070E04F4B1C68022001F0C5F90346F8
:101AC000B4FBF3F27B681B6819694B4B0B40002B8E
:101AD00018D17B681B68D968484B0B40002B11D18B
:101AE0007B681B681969464B0B40002B08D17B684B
:101AF0001B68D968434B0B40002B01D1142320E015
:101B000029231EE07B681B6819693D4B0B40002BA5
:101B100006D17B681B68D9683A4B0B40002B0DD06F
:101B20007B681B681969384B0B40002B08D17B6818
:101B30001B68D968344B0B40002B01D1542300E0C3
:101B4000FC2302FB03F33B6121E03B68B3F1FF3F61
:101B50001AD03B68002B07D0FFF79EFD02467B6939
:101B6000D31A3A689A420FD2FB683A699A420BD963
:101B70007B689B6A43F004027B689A627B68002260
:101B800083F82420032330E0FB680133FB60FB680B
:101B90003A699A42D9D87B681B686FF012021A60C2
:101BA0007B689B6A43F400727B689A627B681B685F
:101BB0009B6803F46023B3F5602F15D17B681B7B12
:101BC000002B11D17B689B6A23F480727B689A6238
:101BD0007B689B6A03F48053002B05D17B689B6A6A
:101BE00043F001027B689A62002318461C37BD4609
:101BF00090BD00BF00000020244992242449920097
:101C000092244912922449004992240080B483B05E
:101C100000AF78607B681B68DB6C18460C37BD46EC
:101C200080BC704780B485B000AF78603960002315
:101C3000FB730023BB607B6893F82430012B01D138
:101C40000223DCE07B68012283F824203B685B6888
:101C5000062B1CD87B681B68596B3B685A68134677
:101C60009B001344053B1F2202FA03F3DB43194098
:101C70003B6818683B685A6813469B001344053B51
:101C800000FA03F27B681B680A435A633CE03B6836
:101C90005B680C2B1CD87B681B68196B3B685A6807
:101CA00013469B001344233B1F2202FA03F3DB433A
:101CB00019403B6818683B685A6813469B001344F8
:101CC000233B00FA03F27B681B680A431A631BE09C
:101CD0007B681B68D96A3B685A6813469B001344AB
:101CE000413B1F2202FA03F3DB4319403B681868AB
:101CF0003B685A6813469B001344413B00FA03F2C9
:101D00007B681B680A43DA623B681B68092B1CD995
:101D10007B681B68D9683B681A6813465B001344EC
:101D20001E3B072202FA03F3DB4319403B68986825
:101D30003B681A6813465B0013441E3B00FA03F22B
:101D40007B681B680A43DA6019E07B681B681969C5
:101D50003B681A6813465B001344072202FA03F338
:101D6000DB4319403B6898683B681A6813465B0080
:101D7000134400FA03F27B681B680A431A613B684C
:101D80001B68102B03D03B681B68112B32D17B687A
:101D90001B681D4A934225D17B681B689B6803F42E
:101DA0000003002B26D17B681B689A687B681B6840
:101DB00042F400029A603B681B68102B1AD1134B47
:101DC0001B68134AA2FB03239A0C13469B0013447F
:101DD0005B00BB6002E0BB68013BBB60BB68002BE3
:101DE000F9D107E07B689B6A43F020027B689A6226
:101DF0000123FB737B68002283F82420FB7B1846B9
:101E00001437BD4680BC704700240140000000200C
:101E100083DE1B4380B584B000AF78600023FB6095
:101E20000023BB607B681B689B6803F00103012BE8
:101E300040D07B681B689A687B681B6842F001028F
:101E40009A601F4B1B681F4AA2FB03239B0CBB60BD
:101E500002E0BB68013BBB60BB68002BF9D1FFF718
:101E60001BFCF8601FE0FFF717FC0246FB68D31A63
:101E7000022B18D97B681B689B6803F00103012BB8
:101E800011D07B689B6A43F010027B689A627B6882
:101E9000DB6A43F001027B68DA627B68002283F828
:101EA0002420012307E07B681B689B6803F0010383
:101EB000012BD8D1002318461037BD4680BD00BF86
:101EC0000000002083DE1B4380B584B000AF786043
:101ED0000023FB607B681B689B6803F00103012BF8
:101EE0002ED17B681B689A687B681B6822F0010210
:101EF0009A60FFF7D1FBF8601BE0FFF7CDFB0246CD
:101F0000FB68D31A022B14D97B681B689B6803F00B
:101F10000103012B0DD17B689B6A43F010027B68A3
:101F20009A627B68DB6A43F001027B68DA62012314
:101F300007E07B681B689B6803F00103012BDCD082
:101F4000002318461037BD4680BD000080B485B020
:101F500000AF78607B6803F00703FB600C4BDB6825
:101F6000BB60BA684FF6FF031340BB60FB681A0200
:101F7000BB68134343F0BF6343F40033BB60044AC0
:101F8000BB68D36000BF1437BD4680BC704700BF3C
:101F900000ED00E080B400AF044BDB681B0A03F0E7
:101FA00007031846BD4680BC704700BF00ED00E047
:101FB00080B483B000AF0346FB7197F90730002B64
:101FC0000BDBFB7903F01F02064997F907305B0929
:101FD000012000FA02F241F8232000BF0C37BD4671
:101FE00080BC704700E100E080B483B000AF0346DE
:101FF0003960FB7197F90730002B0ADB3B68DAB2D6
:102000000C4997F907301201D2B20B4483F8002330
:102010000AE03B68DAB20849FB7903F00F03043B9E
:102020001201D2B20B441A7600BF0C37BD4680BCF9
:10203000704700BF00E100E000ED00E080B489B02F
:1020400000AFF860B9607A60FB6803F00703FB61DA
:10205000FB69C3F10703042B28BF0423BB61FB69A1
:102060000433062B02D9FB69033B00E000237B61AC
:102070004FF0FF32BB6902FA03F3DA43BB681A4040
:102080007B699A404FF0FF317B6901FA03F3D94332
:102090007B680B40134318462437BD4680BC70470D
:1020A00080B582B000AF78607B68013BB3F1807F80
:1020B00001D301230FE00A4A7B68013B53600F21E3
:1020C0004FF0FF30FFF790FF054B00229A60044B62
:1020D00007221A60002318460837BD4680BD00BF9E
:1020E00010E000E080B582B000AF78607868FFF75C
:1020F0002DFF00BF0837BD4680BD80B586B000AF5C
:102100000346B9607A60FB7300237B61FFF742FFEF
:1021100078617A68B9687869FFF790FF024697F9A5
:102120000F3011461846FFF75FFF00BF1837BD4656
:1021300080BD80B582B000AF0346FB7197F90730D0
:102140001846FFF735FF00BF0837BD4680BD80B594
:1021500082B000AF78607868FFF7A2FF03461846A8
:102160000837BD4680BD000080B48BB000AF7860FA
:10217000396000237B6200233B6269E101227B6AB4
:1021800002FA03F3FB613B681B68FA691340BB6109
:10219000BA69FB699A4240F058813B685B689A4A89
:1021A00093425ED0984A934275D8984A934258D049
:1021B000964A93426FD8964A934252D0944A934299
:1021C00069D8944A93424CD0924A934263D8924A37
:1021D000934246D0904A93425DD8122B2AD8122BB4
:1021E00059D801A252F823F0632200083D220008CA
:1021F0004F22000891220008972200089722000829
:1022000097220008972200089722000897220008CA
:1022100097220008972200089722000897220008BA
:1022200097220008972200089722000845220008FC
:1022300059220008794A934213D02CE03B68DB68AE
:102240003B6229E03B68DB6804333B6224E03B6887
:10225000DB6808333B621FE03B68DB680C333B62A2
:102260001AE03B689B68002B02D104233B6213E019
:102270003B689B68012B05D108233B627B68FA69A8
:102280001A6109E008233B627B68FA695A6103E03E
:1022900000233B6200E000BFBB69FF2B01D87B68D5
:1022A00001E07B6804337B61BB69FF2B02D87B6A4A
:1022B0009B0002E07B6A083B9B003B617B691A68DC
:1022C0000F213B6901FA03F3DB431A40396A3B698A
:1022D00001FA03F31A437B691A603B685B6803F0F9
:1022E0008053002B00F0B1804D4B9B694C4A43F06A
:1022F000010393614A4B9B6903F00103BB60BB6818
:10230000484A7B6A9B08023352F82330FB607B6AA1
:1023100003F003039B000F2202FA03F3DB43FA6886
:102320001340FB607B68404A934213D07B683F4A6E
:1023300093420DD07B683E4A934207D07B683D4A6A
:10234000934201D1032306E0042304E0022302E0C8
:10235000012300E000237A6A02F003029200934016
:10236000FA681343FB602F497B6A9B080233FA68C3
:1023700041F823203B685B6803F48013002B06D0F0
:102380002D4B9A682C49BB6913438B6006E02A4B9E
:102390009A68BB69DB43284913408B603B685B68E4
:1023A00003F40013002B06D0234BDA682249BB69E3
:1023B0001343CB6006E0204BDA68BB69DB431E4960
:1023C0001340CB603B685B6803F40033002B06D0FE
:1023D000194B5A681849BB6913434B6006E0164B0A
:1023E0005A68BB69DB43144913404B603B685B6828
:1023F00003F48033002B21D00F4B1A680E49BB69C0
:1024000013430B6021E000BF0000321000003110C8
:102410000000221000002110000012100000111016
:10242000001002400000014000080140000C014083
:102430000010014000140140000401400B4B1A68D9
:10244000BB69DB43094913400B607B6A01337B6244
:102450003B681A687B6A22FA03F3002B7FF48EAE86
:1024600000BF00BF2C37BD4680BC70470004014050
:1024700080B483B000AF78600B467B8013467B70DE
:102480007B78002B03D07A887B681A6103E07B8815
:102490001A047B681A6100BF0C37BD4680BC7047C8
:1024A00080B582B000AF0346FB80084B5A69FB88B9
:1024B0001340002B06D0054AFB885361FB88184661
:1024C00000F006F800BF0837BD4680BD000401409B
:1024D00080B483B000AF0346FB8000BF0C37BD461D
:1024E00080BC704780B586B000AF78607B68002BF9
:1024F00001D1012372E27B681B6803F00103002B0A
:1025000000F08780924B5B6803F00C03042B0CD027
:102510008F4B5B6803F00C03082B12D18C4B5B686C
:1025200003F48033B3F5803F0BD1894B1B6803F470
:102530000033002B6CD07B685B68002B68D10123D3
:102540004CE27B685B68B3F5803F06D1804B1B682B
:102550007F4A43F4803313602EE07B685B68002B76
:102560000CD17B4B1B687A4A23F480331360784B81
:102570001B68774A23F4802313601DE07B685B6847
:10258000B3F5A02F0CD1724B1B68714A43F4802322
:1025900013606F4B1B686E4A43F4803313600BE08B
:1025A0006B4B1B686A4A23F480331360684B1B68CB
:1025B000674A23F4802313607B685B68002B13D089
:1025C000FFF76AF8386108E0FFF766F802463B69F2
:1025D000D31A642B01D9032300E25D4B1B6803F47B
:1025E0000033002BF0D014E0FFF756F8386108E014
:1025F000FFF752F802463B69D31A642B01D9032333
:10260000ECE1534B1B6803F40033002BF0D100E0E6
:1026100000BF7B681B6803F00203002B63D04C4BA8
:102620005B6803F00C03002B0BD0494B5B6803F095
:102630000C03082B1CD1464B5B6803F48033002B42
:1026400016D1434B1B6803F00203002B05D07B68B7
:102650001B69012B01D00123C0E13D4B1B6823F016
:10266000F8027B685B69DB00394913430B603AE091
:102670007B681B69002B20D0364B01221A60FFF7C4
:102680000BF8386108E0FFF707F802463B69D31AF8
:10269000022B01D90323A1E12D4B1B6803F0020398
:1026A000002BF0D02A4B1B6823F0F8027B685B6993
:1026B000DB00274913430B6015E0264B00221A600C
:1026C000FEF7EAFF386108E0FEF7E6FF02463B69E5
:1026D000D31A022B01D9032380E11D4B1B6803F0A1
:1026E0000203002BF0D17B681B6803F00803002B6A
:1026F0003AD07B689B69002B19D0174B01221A60D6
:10270000FEF7CAFF386108E0FEF7C6FF02463B69E4
:10271000D31A022B01D9032360E10D4B5B6A03F04E
:102720000203002BF0D0012000F0BAFA1CE00A4BA3
:1027300000221A60FEF7B0FF38610FE0FEF7ACFF31
:1027400002463B69D31A022B08D9032346E100BF96
:10275000001002400000424280044242924B5B6AF9
:1027600003F00203002BE9D17B681B6803F004032C
:10277000002B00F0A6800023FB758B4BDB6903F078
:102780008053002B0DD1884BDB69874A43F080537F
:10279000D361854BDB6903F08053BB60BB680123C9
:1027A000FB75824B1B6803F48073002B18D17F4BA1
:1027B0001B687E4A43F480731360FEF76DFF386137
:1027C00008E0FEF769FF02463B69D31A642B01D982
:1027D000032303E1754B1B6803F48073002BF0D0D7
:1027E0007B68DB68012B06D16F4B1B6A6E4A43F096
:1027F000010313622DE07B68DB68002B0CD16A4B70
:102800001B6A694A23F001031362674B1B6A664A1D
:1028100023F0040313621CE07B68DB68052B0CD1FA
:10282000614B1B6A604A43F0040313625E4B1B6AF0
:102830005D4A43F0010313620BE05B4B1B6A5A4A8B
:1028400023F001031362584B1B6A574A23F0040319
:1028500013627B68DB68002B15D0FEF71DFF386123
:102860000AE0FEF719FF02463B69D31A41F28832AB
:10287000934201D90323B1E04B4B1B6A03F00203DF
:10288000002BEED014E0FEF707FF38610AE0FEF7F8
:1028900003FF02463B69D31A41F28832934201D9C1
:1028A00003239BE0404B1B6A03F00203002BEED195
:1028B000FB7D012B05D13C4BDB693B4A23F0805368
:1028C000D3617B68DB69002B00F08780364B5B6847
:1028D00003F00C03082B61D07B68DB69022B46D127
:1028E000334B00221A60FEF7D7FE386108E0FEF78E
:1028F000D3FE02463B69D31A022B01D903236DE0B4
:10290000294B1B6803F00073002BF0D17B681B6A16
:10291000B3F5803F08D1244B5B6823F400327B6819
:102920009B68214913434B601F4B5B6823F474126F
:102930007B68196A7B685B6A0B431B4913434B60D6
:102940001B4B01221A60FEF7A7FE386108E0FEF774
:10295000A3FE02463B69D31A022B01D903233DE0B3
:10296000114B1B6803F00073002BF0D035E0104BC7
:1029700000221A60FEF790FE386108E0FEF78CFE38
:1029800002463B69D31A022B01D9032326E0064BEA
:102990001B6803F00073002BF0D11EE07B68DB693D
:1029A000012B07D1012319E0001002400070004004
:1029B000600042420B4B5B68FB60FB6803F48032B3
:1029C0007B681B6A9A4206D1FB6803F470127B682D
:1029D0005B6A9A4201D0012300E0002318461837B1
:1029E000BD4680BD0010024080B584B000AF786065
:1029F00039607B68002B01D10123D0E06A4B1B6852
:102A000003F007033A689A4210D9674B1B6823F01A
:102A1000070265493B6813430B60634B1B6803F077
:102A200007033A689A4201D00123B8E07B681B682B
:102A300003F00203002B20D07B681B6803F0040323
:102A4000002B05D0594B5B68584A43F4E063536050
:102A50007B681B6803F00803002B05D0534B5B68B1
:102A6000524A43F460535360504B5B6823F0F002CA
:102A70007B689B684D4913434B607B681B6803F080
:102A80000103002B40D07B685B68012B07D1474BCB
:102A90001B6803F40033002B15D101237FE07B6812
:102AA0005B68022B07D1414B1B6803F00073002BBE
:102AB00009D1012373E03D4B1B6803F00203002B97
:102AC00001D101236BE0394B5B6823F003027B6883
:102AD0005B68364913434B60FEF7DEFDF8600AE0A1
:102AE000FEF7DAFD0246FB68D31A41F288329342C0
:102AF00001D9032353E02D4B5B6803F00C027B6884
:102B00005B689B009A42EBD1274B1B6803F00703DD
:102B10003A689A4210D2244B1B6823F007022249DC
:102B20003B6813430B60204B1B6803F007033A68B4
:102B30009A4201D0012332E07B681B6803F0040352
:102B4000002B08D0194B5B6823F4E0627B68DB68DC
:102B5000164913434B607B681B6803F00803002B86
:102B600009D0124B5B6823F460527B681B69DB0061
:102B70000E4913434B6000F021F802460B4B5B6893
:102B80001B0903F00F030A49CB5C22FA03F3094A3D
:102B90001360094B1B681846FEF73CFD00231846DE
:102BA0001037BD4680BD00BF00200240001002402B
:102BB000688C0008000000200400002080B487B06A
:102BC00000AF0023FB600023BB6000237B61002378
:102BD0007B6000233B611E4B5B68FB60FB6803F07E
:102BE0000C03042B02D0082B03D027E0194B3B61C8
:102BF00027E0FB689B0C03F00F03174AD35C7B6054
:102C0000FB6803F48033002B10D0114B5B685B0C26
:102C100003F00103114AD35CBB607B680D4A03FBE0
:102C200002F2BB68B2FBF3F37B6104E07B680C4A01
:102C300002FB03F37B617B693B6102E0054B3B6177
:102C400000BF3B6918461C37BD4680BC704700BFBB
:102C50000010024000127A00808C0008908C00085E
:102C600000093D0080B400AF024B1B681846BD460A
:102C700080BC70470000002080B500AFFFF7F2FF76
:102C80000246054B5B68DB0A03F007030349CB5C94
:102C900022FA03F3184680BD00100240788C000829
:102CA00080B485B000AF78600A4B1B680A4AA2FB6B
:102CB00003235B0A7A6802FB03F3FB6000BFFB6837
:102CC0005A1EFA60002BF9D100BF00BF1437BD4671
:102CD00080BC704700000020D34D621080B586B0E4
:102CE00000AF786000233B610023FB607B681B68BA
:102CF00003F00103002B7DD00023FB754F4BDB69F4
:102D000003F08053002B0DD14C4BDB694B4A43F051
:102D10008053D361494BDB6903F08053BB60BB68D0
:102D20000123FB75464B1B6803F48073002B18D1FD
:102D3000434B1B68424A43F480731360FEF7ACFCBC
:102D4000386108E0FEF7A8FC02463B69D31A642B01
:102D500001D903236DE03A4B1B6803F48073002B09
:102D6000F0D0364B1B6A03F44073FB60FB68002B0A
:102D70002ED07B685B6803F44073FA689A4227D0D0
:102D80002E4B1B6A23F44073FB602E4B01221A600A
:102D90002C4B00221A60294AFB681362FB6803F07F
:102DA0000103002B14D0FEF777FC38610AE0FEF730
:102DB00073FC02463B69D31A41F28832934201D92F
:102DC000032336E01D4B1B6A03F00203002BEED0F9
:102DD0001A4B1B6A23F440727B685B6817491343E4
:102DE0000B62FB7D012B05D1144BDB69134A23F0E9
:102DF0008053D3617B681B6803F00203002B08D06B
:102E00000E4B5B6823F440427B689B680B4913437D
:102E10004B607B681B6803F01003002B08D0074B46
:102E20005B6823F480027B68DB68044913434B60D2
:102E3000002318461837BD4680BD00BF0010024071
:102E4000007000404004424280B588B000AF786016
:102E500000237B610023FB6100233B610023FB60B7
:102E60000023BB617B68102B0AD07B68102B00F21B
:102E70008A807B68012B45D07B68022B75D082E06D
:102E8000464B5B68FB60454B1B6803F08073002B6F
:102E90007BD0FB689B0C03F00F03414AD35C3B6182
:102EA000FB6803F48033002B15D03C4B5B685B0C54
:102EB00003F001033B4AD35C7B61FB6803F480337E
:102EC000002B0DD0384A7B69B2FBF3F23B6902FB61
:102ED00003F3FB6104E03B69344A02FB03F3FB614B
:102EE0002E4B5B6803F48003B3F5800F02D1FB69BE
:102EF000BB614AE0FB695B002D4AA2FB03235B0830
:102F0000BB6142E0254B1B6AFB60FB6803F4407326
:102F1000B3F5807F08D1FB6803F00203002B03D0D8
:102F20004FF40043BB611FE0FB6803F44073B3F54B
:102F3000007F09D1194B5B6A03F00203002B03D019
:102F400049F64043BB610FE0FB6803F44073B3F5FF
:102F5000407F1CD1114B1B6803F40033002B16D0AB
:102F60004FF22443BB6112E011E0FFF785FE0246F9
:102F70000A4B5B689B0B03F0030301335B00B2FB5E
:102F8000F3F3BB6104E000BF02E000BF00E000BF5C
:102F9000BB6918462037BD4680BD00BF0010024007
:102FA000948C0008A48C000800127A0000093D00EF
:102FB000ABAAAAAA80B582B000AF78607B68002B6C
:102FC00001D1012341E07B6893F83D30DBB2002B57
:102FD00006D17B68002283F83C207868FEF786F9EA
:102FE0007B68022283F83D207B681A687B68043383
:102FF0001946104600F0B2FA7B68012283F8462099
:103000007B68012283F83E207B68012283F83F2001
:103010007B68012283F840207B68012283F84120ED
:103020007B68012283F842207B68012283F84320D9
:103030007B68012283F844207B68012283F84520C5
:103040007B68012283F83D20002318460837BD46DF
:1030500080BD80B582B000AF78607B68002B01D165
:10306000012341E07B6893F83D30DBB2002B06D1B1
:103070007B68002283F83C20786800F039F87B6890
:10308000022283F83D207B681A687B680433194666
:10309000104600F063FA7B68012283F846207B68C3
:1030A000012283F83E207B68012283F83F207B6861
:1030B000012283F840207B68012283F841207B684D
:1030C000012283F842207B68012283F843207B6839
:1030D000012283F844207B68012283F845207B6825
:1030E000012283F83D20002318460837BD4680BDE5
:1030F00080B483B000AF786000BF0C37BD4680BCA1
:103100007047000080B584B000AF786039603B68DC
:10311000002B09D17B6893F83E30DBB2012B14BF42
:1031200001230023DBB222E03B68042B09D17B683A
:1031300093F83F30DBB2012B14BF01230023DBB235
:1031400015E03B68082B09D17B6893F84030DBB26F
:10315000012B14BF01230023DBB208E07B6893F846
:103160004130DBB2012B14BF01230023DBB2002B63
:1031700001D001235EE03B68002B04D17B68022272
:1031800083F83E2013E03B68042B04D17B680222C5
:1031900083F83F200BE03B68082B04D17B680222B8
:1031A00083F8402003E07B68022283F841207B689B
:1031B0001B6801223968184600F05CFC7B681B68BC
:1031C0001E4A934207D17B681B685A6C7B681B6858
:1031D00042F400425A647B681B68184A93420ED03E
:1031E0007B681B68B3F1804F09D07B681B68144A69
:1031F000934204D07B681B68124A934211D17B68CA
:103200001B689B6803F00703FB60FB68062B10D06C
:103210007B681B681A687B681B6842F001021A60B1
:1032200007E07B681B681A687B681B6842F0010234
:103230001A60002318461037BD4680BD002C01409F
:10324000000400400008004080B586B000AFF86080
:10325000B9607A600023FB75FB6893F83C30012B62
:1032600001D10223AEE0FB68012283F83C207B6899
:103270000C2B00F29F8001A252F823F0B13200081B
:10328000B5330008B5330008B5330008F132000843
:10329000B5330008B5330008B533000833330008F0
:1032A000B5330008B5330008B533000873330008A0
:1032B000FB681B68B968184600F0BEF9FB681B681C
:1032C0009A69FB681B6842F008029A61FB681B68F8
:1032D0009A69FB681B6822F004029A61FB681B680C
:1032E0009969BB681A69FB681B680A439A6164E0C4
:1032F000FB681B68B968184600F004FAFB681B6895
:103300009A69FB681B6842F400629A61FB681B685B
:103310009A69FB681B6822F480629A61FB681B68EB
:103320009969BB681B691A02FB681B680A439A61AA
:1033300043E0FB681B68B968184600F04DFAFB686B
:103340001B68DA69FB681B6842F00802DA61FB68F7
:103350001B68DA69FB681B6822F00402DA61FB680B
:103360001B68D969BB681A69FB681B680A43DA6184
:1033700023E0FB681B68B968184600F097FAFB6801
:103380001B68DA69FB681B6842F40062DA61FB685B
:103390001B68DA69FB681B6822F48062DA61FB68EB
:1033A0001B68D969BB681B691A02FB681B680A4362
:1033B000DA6102E00123FB7500BFFB68002283F89D
:1033C0003C20FB7D18461837BD4680BD80B584B0D3
:1033D00000AF786039600023FB737B6893F83C3062
:1033E000012B01D10223B4E07B68012283F83C2049
:1033F0007B68022283F83D207B681B689B68BB606A
:10340000BB6823F07703BB60BB6823F47F43BB60DA
:103410007B681B68BA689A603B681B68B3F5005FFD
:103420003ED0B3F5005F00F28780B3F5805F00F017
:103430008680B3F5805F7FD8702B1AD0702B7BD835
:10344000602B50D0602B77D8502B3CD0502B73D8AA
:10345000402B58D0402B6FD8302B64D0302B6BD8FA
:10346000202B60D0202B67D8002B5CD0102B5AD09B
:1034700062E07B6818683B6899683B685A683B68FB
:10348000DB6800F0D8FA7B681B689B68BB60BB6890
:1034900043F07703BB607B681B68BA689A604FE0B3
:1034A0007B6818683B6899683B685A683B68DB68CA
:1034B00000F0C1FA7B681B689A687B681B6842F45D
:1034C00080429A603CE07B6818683B6859683B68BA
:1034D000DB681A4600F038FA7B681B6850211846F2
:1034E00000F08FFA2CE07B6818683B6859683B68ED
:1034F000DB681A4600F056FA7B681B6860211846A4
:1035000000F07FFA1CE07B6818683B6859683B68EC
:10351000DB681A4600F018FA7B681B6840211846E1
:1035200000F06FFA0CE07B681A683B681B6819466C
:10353000104600F066FA03E00123FB7300E000BFD1
:103540007B68012283F83D207B68002283F83C20C1
:10355000FB7B18461037BD4680BD000080B485B0A7
:1035600000AF786039607B681B68FB607B682F4A1E
:1035700093420BD07B68B3F1804F07D07B682C4A15
:10358000934203D07B682B4A934208D1FB6823F017
:103590007003FB603B685B68FA681343FB607B6801
:1035A000224A93420BD07B68B3F1804F07D07B68EF
:1035B0001F4A934203D07B681E4A934208D1FB689E
:1035C00023F44073FB603B68DB68FA681343FB60DD
:1035D000FB6823F080023B685B691343FB607B68F8
:1035E000FA681A603B689A687B68DA623B681A6816
:1035F0007B689A627B680D4A934203D13B681A69E3
:103600007B681A637B6801225A617B681B6903F03F
:103610000103002B05D07B681B6923F001027B6846
:103620001A6100BF1437BD4680BC7047002C0140B2
:10363000000400400008004080B487B000AF78600C
:1036400039607B681B6A7B617B681B6A23F001021F
:103650007B681A627B685B683B617B689B69FB6087
:10366000FB6823F07003FB60FB6823F00303FB603F
:103670003B681B68FA681343FB607B6923F0020315
:103680007B613B689B687A6913437B617B681C4A5A
:1036900093420CD17B6923F008037B613B68DB68B4
:1036A0007A6913437B617B6923F004037B617B6848
:1036B000134A934211D13B6923F480733B613B6908
:1036C00023F400733B613B685B693A6913433B61D8
:1036D0003B689B693A6913433B617B683A695A606E
:1036E0007B68FA689A613B685A687B685A637B68B2
:1036F0007A691A6200BF1C37BD4680BC704700BFA4
:10370000002C014080B487B000AF786039607B68DE
:103710001B6A7B617B681B6A23F010027B681A625C
:103720007B685B683B617B689B69FB60FB6823F49B
:10373000E043FB60FB6823F44073FB603B681B685D
:103740001B02FA681343FB607B6923F020037B6153
:103750003B689B681B017A6913437B617B681D4A48
:1037600093420DD17B6923F080037B613B68DB686A
:103770001B017A6913437B617B6923F040037B6102
:103780007B68144A934213D13B6923F480633B6105
:103790003B6923F400633B613B685B699B003A69CA
:1037A00013433B613B689B699B003A6913433B6150
:1037B0007B683A695A607B68FA689A613B685A6824
:1037C0007B689A637B687A691A6200BF1C37BD46C2
:1037D00080BC7047002C014080B487B000AF786097
:1037E00039607B681B6A7B617B681B6A23F480728B
:1037F0007B681A627B685B683B617B68DB69FB60A6
:10380000FB6823F07003FB60FB6823F00303FB609D
:103810003B681B68FA681343FB607B6923F4007301
:103820007B613B689B681B027A6913437B617B6801
:103830001D4A93420DD17B6923F400637B613B6891
:10384000DB681B027A6913437B617B6923F4806325
:103850007B617B68144A934213D13B6923F4805304
:103860003B613B6923F400533B613B685B691B018F
:103870003A6913433B613B689B691B013A691343F7
:103880003B617B683A695A607B68FA68DA613B6839
:103890005A687B68DA637B687A691A6200BF1C37F2
:1038A000BD4680BC704700BF002C014080B487B08B
:1038B00000AF786039607B681B6A3B617B681B6A7C
:1038C00023F480527B681A627B685B687B617B684B
:1038D000DB69FB60FB6823F4E043FB60FB6823F4D7
:1038E0004073FB603B681B681B02FA681343FB6074
:1038F0003B6923F400533B613B689B681B033A69B7
:1039000013433B617B680F4A934209D17B6923F4DF
:1039100080437B613B685B699B017A6913437B61F0
:103920007B687A695A607B68FA68DA613B685A6832
:103930007B681A647B683A691A6200BF1C37BD460F
:1039400080BC7047002C014080B487B000AFF860A5
:10395000B9607A60FB681B6A7B61FB681B6A23F0B5
:103960000102FB681A62FB689B693B613B6923F0BB
:10397000F0033B617B681B013A6913433B617B6940
:1039800023F00A037B617A69BB6813437B61FB68A0
:103990003A699A61FB687A691A6200BF1C37BD46B2
:1039A00080BC704780B487B000AFF860B9607A60BF
:1039B000FB681B6A7B61FB681B6A23F01002FB68D3
:1039C0001A62FB689B693B613B6923F470433B616E
:1039D0007B681B033A6913433B617B6923F0A003B7
:1039E0007B61BB681B017A6913437B61FB683A69A1
:1039F0009A61FB687A691A6200BF1C37BD4680BCB9
:103A0000704780B485B000AF786039607B689B6890
:103A1000FB60FB6823F07003FB603A68FB681343AC
:103A200043F00703FB607B68FA689A6000BF1437B5
:103A3000BD4680BC704780B487B000AFF860B96005
:103A40007A603B60FB689B687B617B6923F47F4302
:103A50007B613B681A027B681A43BB6813437A692F
:103A600013437B61FB687A699A6000BF1C37BD46CF
:103A700080BC704780B487B000AFF860B9607A60EE
:103A8000BB6803F01F03012202FA03F37B61FB68AA
:103A90001A6A7B69DB431A40FB681A62FB681A6A80
:103AA000BB6803F01F03796801FA03F31A43FB684C
:103AB0001A6200BF1C37BD4680BC704780B485B019
:103AC00000AF786039607B6893F83C30012B01D1FE
:103AD000022346E07B68012283F83C207B680222B7
:103AE00083F83D207B681B685B68FB607B681B6814
:103AF0009B68BB60FB6823F07003FB603B681B683E
:103B0000FA681343FB607B681B68FA685A607B683D
:103B10001B68164A93420ED07B681B68B3F1804F36
:103B200009D07B681B68124A934204D07B681B68EB
:103B3000104A93420CD1BB6823F08003BB603B6802
:103B40005B68BA681343BB607B681B68BA689A609D
:103B50007B68012283F83D207B68002283F83C20AB
:103B6000002318461437BD4680BC7047002C014026
:103B7000000400400008004080B485B000AF7860C9
:103B800039600023FB607B6893F83C30012B01D146
:103B900002233DE07B68012283F83C20FB6823F090
:103BA000FF023B68DB681343FB60FB6823F4407251
:103BB0003B689B681343FB60FB6823F480623B68AF
:103BC0005B681343FB60FB6823F400623B681B687F
:103BD0001343FB60FB6823F480523B681B6913436B
:103BE000FB60FB6823F400523B685B691343FB6096
:103BF000FB6823F480423B68DB691343FB607B680E
:103C00001B68FA685A647B68002283F83C20002312
:103C100018461437BD4680BC7047000080B582B09E
:103C200000AF03460A46FB711346BB71BB7903F034
:103C30000103002B14D0FB795A4A342101FB03F312
:103C4000134404331868FB79564A342101FB03F30B
:103C5000134408331B8801221946FEF709FC13E0C0
:103C6000FB79504A342101FB03F3134404331868F1
:103C7000FB794C4A342101FB03F3134408331B88BE
:103C800000221946FEF7F4FBBB7903F00203002B78
:103C900014D0FB79434A342101FB03F313440C3362
:103CA0001868FB793F4A342101FB03F313441033B6
:103CB0001B8801221946FEF7DBFB13E0FB79394A2A
:103CC000342101FB03F313440C331868FB79354AA4
:103CD000342101FB03F3134410331B8800221946DF
:103CE000FEF7C6FBBB7903F00403002B14D0FB796D
:103CF0002C4A342101FB03F3134414331868FB7975
:103D0000284A342101FB03F3134418331B88012292
:103D10001946FEF7ADFB13E0FB79224A342101FB83
:103D200003F3134414331868FB791E4A342101FB52
:103D300003F3134418331B8800221946FEF798FB3F
:103D4000BB7903F00803002B14D0FB79154A34210A
:103D500001FB03F313441C331868FB79114A342127
:103D600001FB03F3134420331B8801221946FEF79D
:103D70007FFB13E0FB790B4A342101FB03F313446F
:103D80001C331868FB79074A342101FB03F3134401
:103D900020331B8800221946FEF76AFB00BF083754
:103DA000BD4680BDA88C000880B588B000AF034632
:103DB0000A46FB711346BB71FB79574A342101FB5C
:103DC00003F313442C331868FB79534A342101FB65
:103DD00003F3134430331B8800221946FEF748FBD7
:103DE000BA79FB7911461846FFF718FFFB794A4A62
:103DF000342101FB03F3134424331868FB79464A4A
:103E0000342101FB03F3134428331B880022194695
:103E1000FEF72EFB414B9B68FB61414B1B68414AFF
:103E2000A2FB03239A0C13469B001A443C4B1B68CD
:103E30003C49A1FB03139B0C5B08D31ABB61374BB6
:103E40009B68FA69D31ABA699A42F8D8FB79324A60
:103E5000342101FB03F3134424331868FB792E4A01
:103E6000342101FB03F3134428331B880122194634
:103E7000FEF7FEFA294B9B687B61294B1B68294A98
:103E8000A2FB03239A0C13469B001A44244B1B6885
:103E90002449A1FB03139B0C5B08D31A3B611F4B06
:103EA0009B687A69D31A3A699A42F8D8FB791A4A18
:103EB000342101FB03F3134424331868FB79164AB9
:103EC000342101FB03F3134428331B8800221946D5
:103ED000FEF7CEFA114B9B68FB60114B1B68114A31
:103EE000A2FB03239B0C642203FB02F20C4B1B6816
:103EF0000C49A1FB03139B0C5B08D31ABB60074B57
:103F00009B68FA68D31ABA689A42F8D800BF00BF13
:103F10002037BD4680BD00BFA88C000810E000E03F
:103F20000000002083DE1B4380B586B000AF03464F
:103F3000FB71FB7900211846FFF736FFFB79012161
:103F40001846FFF731FF00237B611FE0134B9B688E
:103F50003B61134B1B68134AA2FB03239B0C4FF4DA
:103F60007A7203FB02F20E4B1B680E49A1FB03138E
:103F70009B0C5B08D31AFB60084B9B683A69D31A09
:103F8000FA689A42F8D87B6901337B617B69012B1F
:103F9000DCD900BF00BF1837BD4680BD10E000E08F
:103FA0000000002083DE1B4380B584B000AF0346D1
:103FB000FB710B46BB7113467B71BB79012B15D18D
:103FC0007B797F33FB73FB7B1B09BB73FB7B03F0AC
:103FD0000F037B73BA7BFB7911461846FFF7E4FEAB
:103FE0007A7BFB7911461846FFF7DEFEBB79022B80
:103FF00015D17B79413BFB73FB7B1B09BB73FB7BBF
:1040000003F00F037B73BA7BFB7911461846FFF769
:10401000CBFE7A7BFB7911461846FFF7C5FE00BF41
:104020001037BD4680BD000080B58EB000AF03469E
:10403000FB7100BFFDF730FB0346312BFAD9FB794A
:104040007C4A342101FB03F313442C331868FB79B9
:10405000784A342101FB03F3134430331B880022D8
:104060001946FEF705FAFB79724A342101FB03F386
:10407000134424331868FB796E4A342101FB03F39F
:10408000134428331B8800221946FEF7F1F9FB7907
:1040900000211846FFF7C2FD00237B631FE0664B3B
:1040A0009B683B61654B1B68654AA2FB03239B0C25
:1040B0004FF47A7203FB02F2604B1B686049A1FB6C
:1040C00003139B0C5B08D31AFB605B4B9B683A693C
:1040D000D31AFA689A42F8D87B6B01337B637B6B07
:1040E000952BDCD9FB7903211846FFF75DFE0023F1
:1040F0003B631FE0504B9B68BB61504B1B68504AB1
:10410000A2FB03239B0C4FF47A7203FB02F24B4B8E
:104110001B684B49A1FB03139B0C5B08D31A7B6103
:10412000454B9B68BA69D31A7A699A42F8D83B6BB7
:1041300001333B633B6B042BDCD9FB79032118462D
:10414000FFF732FE0023FB621FE03B4B9B683B62A4
:104150003A4B1B683A4AA2FB03239B0C4FF47A723A
:1041600003FB02F2354B1B683549A1FB03139B0C83
:104170005B08D31AFB61304B9B683A6AD31AFA6921
:104180009A42F8D8FB6A0133FB62FB6A042BDCD944
:10419000FB7903211846FFF707FE274B9B68BB629C
:1041A000264B1B68264AA2FB03239B0C962203FB8B
:1041B00002F2224B1B682249A1FB03139B0C5B08F4
:1041C000D31A7B621C4B9B68BA6AD31A7A6A9A42EA
:1041D000F8D8FB7902211846FFF7E6FDFB790221AA
:1041E0001846FFF7E1FDFB7908211846FFF7DCFDD3
:1041F000FB7900211846FFF7D7FDFB790C21184603
:10420000FFF7D2FDFB7900211846FFF7CDFDFB79C2
:1042100006211846FFF7C8FDFB7900211846FFF775
:10422000C3FDFB7901211846FFF7BEFD00BF3837FB
:10423000BD4680BDA88C000810E000E00000002012
:1042400083DE1B4380B590B000AF03460A46FB7186
:104250001346BB71BB7903F00F0387F83F30BB797E
:1042600023F00F0387F83E30FB79A44A342101FB89
:1042700003F313442C331868FB79A04A342101FB63
:1042800003F3134430331B8801221946FEF7F0F87C
:1042900097F83E301B09DAB2FB7911461846FFF752
:1042A000BDFCFB79954A342101FB03F3134424330D
:1042B0001868FB79914A342101FB03F31344283336
:1042C0001B8800221946FEF7D3F88D4B9B68BB6311
:1042D0008C4B1B688C4AA2FB03239A0C13469B0051
:1042E0001A44884B1B688849A1FB03139B0C5B088D
:1042F000D31A7B63824B9B68BA6BD31A7A6B9A4250
:10430000F8D8FB797D4A342101FB03F313442433AD
:104310001868FB79794A342101FB03F313442833ED
:104320001B8801221946FEF7A3F8754B9B683B6377
:10433000744B1B68744AA2FB03239A0C13469B0020
:104340001A44704B1B687049A1FB03139B0C5B085C
:10435000D31AFB626A4B9B683A6BD31AFA6A9A4289
:10436000F8D8FB79654A342101FB03F31344243365
:104370001868FB79614A342101FB03F313442833A5
:104380001B8800221946FEF773F85D4B9B68BB62E1
:104390005C4B1B685C4AA2FB03239B0C642203FB5F
:1043A00002F2584B1B685849A1FB03139B0C5B0896
:1043B000D31A7B62524B9B68BA6AD31A7A6A9A42C2
:1043C000F8D897F83F20FB7911461846FFF726FCEE
:1043D000FB794A4A342101FB03F313442433186860
:1043E000FB79464A342101FB03F3134428331B882D
:1043F00000221946FEF73CF8414B9B683B62414B5B
:104400001B68414AA2FB03239A0C13469B001A44E3
:104410003C4B1B683C49A1FB03139B0C5B08D31A64
:10442000FB61374B9B683A6AD31AFA699A42F8D80B
:10443000FB79324A342101FB03F313442433186817
:10444000FB792E4A342101FB03F3134428331B88E4
:1044500001221946FEF70CF8294B9B68BB61294BDA
:104460001B68294AA2FB03239A0C13469B001A449B
:10447000244B1B682449A1FB03139B0C5B08D31A34
:104480007B611F4B9B68BA69D31A7A699A42F8D844
:10449000FB791A4A342101FB03F3134424331868CF
:1044A000FB79164A342101FB03F3134428331B889C
:1044B00000221946FDF7DCFF114B9B683B61114B55
:1044C0001B68114AA2FB03239B0C642203FB02F22C
:1044D0000C4B1B680C49A1FB03139B0C5B08D31A04
:1044E000FB60074B9B683A69D31AFA689A42F8D87E
:1044F00000BF00BF4037BD4680BD00BFA88C00088C
:1045000010E000E00000002083DE1B4380B584B093
:1045100000AF03463960FB710023FB600BE0FB68D2
:104520003A6813441A78FB7911461846FFF78AFE59
:10453000FB680133FB60FB683A6813441B78002B6F
:10454000EDD100BF00BF1037BD4680BD002B2DE967
:10455000F0471D46BBBF03F100431D4600232D233A
:1045600088B01446B8BF1446129A109E1370149B5C
:10457000DDF84CA023F02008B8F1460F05D0B8F1C3
:10458000450F00D10136022300E0032307AA04925D
:1045900006AACDE902A2CDE9003622462B4601F05B
:1045A0007BF8B8F1470F074619D1119BDB070ED5F1
:1045B00000EB06090022002320462946FCF7F4F907
:1045C00008B1CDF81C903022079B4B451ED33846CE
:1045D000079B159ADB1B136008B0BDE8F087B8F1A4
:1045E000460F00EB0609E5D10378302B0AD10022F3
:1045F000002320462946FCF7D7F918B9C6F1010671
:10460000CAF80060DAF800309944D3E7591C0791E2
:104610001A70D9E7F7B50029B6BF2D232B234942DD
:1046200009290270437029DD0DF107031D460A2791
:10463000B1FBF7F61A4607FB1614303402F8014CAA
:104640000C46632C314603F1FF33F1DC3031941E0C
:1046500003F8011C2346411CAB420AD30DF10903A8
:104660009B1AAC4288BF002302330344181A03B0DC
:10467000F0BD13F8016B01F8016FEDE73023303125
:104680008370C170031DF1E72DE9F04F91B00C4626
:10469000DDF8688016461F46054600F0EBFE03680D
:1046A00018460893FBF754FD00230E93D8F800300A
:1046B0000990073323F0070303F1080294F818A0C8
:1046C000D4F800B0C8F80020D3E9008929F00043ED
:1046D0000B93CDF828804FF0FF32DDE90A01C4E9E1
:1046E00012899C4BFCF792F970BBDDE90A014FF08F
:1046F000FF32984BFCF76CF930BB00220023404698
:104700004946FCF75BF910B12D2384F84330924AF7
:10471000924BBAF1470F8CBF9046984603234FF057
:10472000000923612BF00403236033462146284609
:1047300000970FAA00F0D4F9013040F090804FF0BC
:10474000FF3011B0BDE8F08F42464B464046494627
:10475000FCF75CF948B14B46002BB8BF2D23804ACB
:10476000B8BF84F843307F4BD3E763680AF0DF01BA
:104770005A1C3FD10623636000224BF48063236000
:1047800006920EAACDE904A20DAA03920DF13302FE
:10479000CDE9013263684246009328464B460A91B0
:1047A000FFF7D4FE0A99804647290D9928D1C81CE5
:1047B00002DB6368994240DDAAF1020A5FFA8AFAD5
:1047C0005246013904F150000D91FFF723FF0E9A74
:1047D00081461318012A236102DC2268D20701D521
:1047E000013323619DF83330002B9ED02D2384F8B4
:1047F00043309AE74729BFD1002BBDD10123BAE747
:10480000BAF1650FDCD9BAF1660F18D100296368D7
:104810000BDD216113B92268D00702D501330B44A7
:1048200023614FF00009A165DCE713B92268D207C4
:1048300001D50233F4E70123F2E74FF0670A0E9B3C
:10484000994205DB23682161D807EAD54B1CE7E7CD
:104850000029CCBF0122C1F102021344E0E7236822
:104860005A0507D42369424631462846B8470130E5
:104870002BD164E7BAF1650F40F2DC80D4E9120174
:1048800000220023FCF790F8002833D001233146A2
:104890002846354AB84701303FF451AFDDE90D38BD
:1048A000434502DB2368D8070FD5DDE908233146ED
:1048B0002846B84701303FF442AF4FF0000908F1F5
:1048C000FF3804F11A0AC84509DC23689B0700F188
:1048D0000281E0680F9B9842B8BF184631E7012378
:1048E000524631462846B84701303FF428AF09F117
:1048F0000109E8E70D9B002B38DC012331462846EF
:10490000194AB84701303FF41AAFDDE90D3959EAC9
:10491000030302D12368D907D7D5DDE9082331463F
:104920002846B84701303FF40AAF4FF0000A04F1BF
:104930001A0B0D9B5B42534501DC4B4693E7012369
:104940005A4631462846B84701303FF4F8AE0AF1DE
:10495000010AEEE7FFFFEF7FE08C0008DC8C000827
:10496000E88C0008E48C0008EC8C0008A36DDDF8EE
:1049700038A05345A8BF5346002B994636DC4FF06C
:10498000000B29EAE97904F11A02A36D0A93A3EB5B
:1049900009035B4531DC0D9B9A453ADC2368DA0755
:1049A00037D40D9BAAEB03090A9BAAEB0303994595
:1049B000A8BF9946B9F1000F33DC4FF0000829EA8F
:1049C000E97904F11A0B0D9BAAEB0303A3EB09038E
:1049D00043457FF77AAF01235A4631462846B84708
:1049E00001303FF4ACAE08F10108ECE74246314635
:1049F0002846B8470130C2D1A1E6012331462846F6
:104A00000A92B84701303FF49AAE0A9A0BF1010BB3
:104A1000BBE73146DDE908232846B8470130C0D15D
:104A20008DE60A9A4B46314628464244B847013043
:104A3000C3D184E6DDF838A0BAF1010F01DCDB0751
:104A400036D50123424631462846B84701303FF467
:104A500076AEDDE9082331462846B84701303FF4F9
:104A60006EAED4E91201002200230AF1FF3AFBF7EF
:104A70009BFFC0B9534608F1010231462846B847AA
:104A800001300CD15BE601235A4631462846B8472F
:104A900001303FF454AE08F10108D045F3DB4B463A
:104AA00004F15002E0E64FF0000804F11A0BF4E7BD
:104AB00001234246E1E701234A4631462846B847EA
:104AC00001303FF43CAE08F10108E3680F995B1A2E
:104AD0004345F0DCFDE64FF0000804F11909F4E766
:104AE0002DE9F047164698468A680B6907469342B7
:104AF000B8BF1346336091F843200C46DDF8209090
:104B00000AB1013333602368990642BF3368023328
:104B10003360256815F0060506D104F1190AE3682B
:104B200032689B1AAB422BDC94F843302268003B7E
:104B300018BF0123920630D44146384604F143029F
:104B4000C847013023D02368226903F00603042BF1
:104B500014BF002533684FF0000608BFE56804F174
:104B60001A0408BFED1A54F8123C08BF25EAE5758F
:104B70009342C4BF9B1AED18B5421AD1002008E039
:104B80000123524641463846C847013003D14FF011
:104B9000FF30BDE8F0870135C1E73020E11881F82A
:104BA00043005A1C94F845102244023382F8431003
:104BB000C2E70123224641463846C8470130E6D0C5
:104BC0000136D9E72DE9FF470F7E9146782F8046C1
:104BD0000C469A460C9E01F1430207D8622F0AD870
:104BE000002F00F0D180582F00F0B88004F1420669
:104BF00084F842703AE0A7F16303152BF6D801A1BF
:104C000051F823F05D4C0008714C0008ED4B000892
:104C1000ED4B0008ED4B0008ED4B0008714C00080F
:104C2000ED4B0008ED4B0008ED4B0008ED4B000884
:104C30006F4D00089B4C0008294D0008ED4B000803
:104C4000ED4B0008914D0008ED4B00089B4C00080F
:104C5000ED4B0008ED4B0008314D000833681A1D7C
:104C60001B68326004F1420684F8423001239CE064
:104C700033682068191D3160060601D51D6803E000
:104C80004506FBD5B3F90050002D03DA2D236D4204
:104C900084F843300A23584811E021683368080635
:104CA00053F8045B02D4490648BFADB26F2F33609E
:104CB00014BF0A2308235048002184F84310666873
:104CC000002EA66005DB21682E4321F0040121603F
:104CD0004BD01646B5FBF3F103FB1157C75D06F841
:104CE000017D2F46BB420D46F4D9082B0BD123681A
:104CF000DF0708D5236961689942DEBF302306F8D3
:104D0000013C06F1FF36921B22614B46214640468C
:104D1000CDF800A003AAFFF7E3FE01304AD14FF01F
:104D2000FF3004B0BDE8F087236843F02003236020
:104D30007827324884F84570236831681F0651F897
:104D4000045B02D45F0648BFADB23160D90744BFEF
:104D500043F0200323601DB11023ADE72648E9E7A7
:104D6000236823F020032360F6E71646BDE7336887
:104D70002568181D616930602E061B6801D5196011
:104D800002E06806FBD51980002316462361BCE7C4
:104D9000336800211A1D32601E686268304600F0D8
:104DA000E0FB08B1801B606063682361002384F826
:104DB0004330AAE73246494640462369D04701308E
:104DC000ADD023689B0713D4E068039B9842B8BF1B
:104DD0001846A6E70123324649464046D0470130EF
:104DE0009DD00135E36803995B1AAB42F2DCEBE737
:104DF000002504F11906F5E7EE8C0008FF8C000889
:104E00002DE9F04F87B003938B6891465A1EB2F597
:104E1000AE7F82BF6FF4AE7503EB050B40F25D13FE
:104E20000A464FF0000588BF8B600B68804643F44C
:104E3000F06342F81C3B0C4698BF4FF0000B16463F
:104E4000AA462F46CDE9045501920295A2685AB1AF
:104E5000D9F800301B784E2B62D8402B3AD8A3F1FA
:104E60002B01C8B20E2838D91FB1236823F48073F0
:104E700023600AF1FF3ABAF1010F00F21481019B9D
:104E80009E4200F20581012007B0BDE8F08FA3F13A
:104E900061020D2AE8D801A151F822F0E54F00087F
:104EA000694E0008694E0008694E0008415000082C
:104EB0001B500008694E0008694E0008F34F0008B7
:104EC000694E0008694E0008694E0008694E0008E6
:104ED000AF4F0008A3F14102DBE70E29C4D801A0BF
:104EE00050F821F09F4F0008694E00089F4F0008BE
:104EF0002F500008694E0008414F0008854F0008F8
:104F0000854F0008854F0008854F0008854F000831
:104F1000854F0008854F0008854F0008854F000821
:104F20006E2B09D8602BB2D8542B7BD0592B9BD138
:104F3000072D99D108252FE0742B73D0792BF6E734
:104F40002168C8051ED521F0800121600137BBF121
:104F5000000F03D001320BF1FF3BA260A368013BBD
:104F6000A360236901332361D9F80430013B002B8E
:104F7000C9F8043040F38380D9F800300133C9F810
:104F8000003063E71AEB05017FF46EAF0D468A46E9
:104F9000226822F4C072226006F8013BDEE7226834
:104FA00010067FF561AF22F080022260F4E7BAF1CB
:104FB000000F0CD177B9226802F4E061B1F5E06F1F
:104FC00008D122F4F0624FF0010A2260E4E7BAF15E
:104FD000020F51D0012D02D0042D7FF445AF0135D1
:104FE000EDB2D9E7BAF1010F7FF43EAF4FF0020AFC
:104FF000D2E775B9002F7FF438AF226802F4E06180
:10500000B1F5E06F40F0FF8022F4F06201252260EC
:10501000C2E7032DE3D0052DDFE7022D7FF424AF97
:105020000325B9E7062D7FF41FAF0725B4E72268F3
:1050300091057FF519AF22F4207222600297ABE749
:10504000226802F4A061B1F5806F05D050057FF5AC
:105050000BAF002F00F0D780910558BF029922F4C2
:10506000F06258BF791A42F4C0724FF0000758BF7F
:10507000CDE9041622608FE74FF0030A8CE749461A
:105080004046D4F88031984700283FF4DFAEEBE685
:10509000D4F87C314A46404616F8011D98472369EA
:1050A000013B2361EBE66B1E062B24D8022D36D87C
:1050B000019B9E427FF6E7AED4F87C314A464046DB
:1050C00016F8011D98472369013B2361F0E7D4F8E6
:1050D0007C314A4640461BF8011D98472369013B35
:1050E00023610AF1FF3A5FFA8AFABAF1020FEED1B0
:1050F000033DEDB2761B2368DA0530D55B0511D58B
:10510000019B9E427FF6BFAED4F87C314A464046B2
:1051100016F8011D98472369013B2361F0E7AA4671
:10512000B346DEE716F8011C2369652903F1FF3356
:1051300006F1FF3523610CD045290AD0D4F87C3123
:105140004A4640469847236916F8021C013BB51EA3
:1051500023614A464046D4F87C3198472E4622685F
:1051600012F0100201D000208EE63270236803F4A2
:10517000C063B3F5806F25D1029B9F420AD0DA1B32
:1051800004F26F139E4228BF04F5B77630461F49DC
:1051900000F002F900224046019902F0E9FB039B6E
:1051A00025681B6815F0020F06460F4603F104023E
:1051B00015D003990A601B68C3E90067E3680133EF
:1051C000E360D0E7049B002BE4D005990A23404616
:1051D000013102F04DFC049B059EC21AD0E76D0719
:1051E000E7D4039D2A601D6802460B46FBF70EFCC0
:1051F00020B1074800F0C4F92860DFE7304639469F
:10520000FBF762FCF8E7002733E600BF108D0008CB
:10521000518E0008002310B50446C0E90033C0E9F0
:105220000433836081814366C28183611946082209
:105230005C3000F016F90D4B246263620C4BA362E4
:105240000C4BE3620C4B23630C4B9C4206D003F1E6
:105250006802944202D0D0339C4205D104F1580038
:10526000BDE8104000F07AB910BD00BFDD53000862
:10527000FF530008375400085B54000874020020F4
:10528000024A0349034800F069B800BF0C0000203F
:10529000257E00081C00002041680C4B10B5994287
:1052A000044601D002F0BEFDA168094B994202D02C
:1052B000204602F0B7FDE168064B994204D0204633
:1052C000BDE8104002F0AEBD10BD00BF740200206A
:1052D000DC0200204403002010B50B4B0B4C0C4AA1
:1052E00020461A6004210022FFF794FF04F16800B1
:1052F00001220921FFF78EFF04F1D0000222BDE850
:1053000010401221FFF786BFAC030020740200207A
:1053100081520008014800F022B900BFB503002007
:10532000014800F01DB900BFB503002010B50446C8
:10533000FFF7F0FF236A1BB1BDE81040FFF7F0BF95
:10534000044B2362044B1B68002BF5D1FFF7C4FF0D
:10535000F2E700BF99520008AC0300202DE9F843A2
:105360000746884614460026D4E90195B9F101099B
:1053700005D52468002CF7D13046BDE8F883AB8909
:10538000012B07D9B5F90E30013303D02946384631
:10539000C04706436835E9E70EB46FF0004110B529
:1053A00000249DB01FAB029006900791049109481C
:1053B000094953F8042B0591006802A901931B9435
:1053C00002F0B4FB029B1C701DB0BDE8104003B09E
:1053D000704700BF180000200802FFFF10B50C4600
:1053E000B1F90E1000F06CF80028ABBF636DA38913
:1053F0001B1823F48053ACBF6365A38110BD2DE956
:10540000F0411F468B890546DB050C46164605D53F
:1054100002230022B1F90E1000F040F8A3893246B1
:1054200023F48053A38128463B46B4F90E10BDE80F
:10543000F04100F057B810B50C46B1F90E1000F06D
:105440002DF8431CA38915BF606523F4805343F4F2
:105450008053A38118BFA38110BDB1F90E1000F0D5
:105460000DB803460244934200D1704703F8011B74
:10547000F9E70000004870475801002038B50023C4
:10548000054D044608462B60FCF71BF8431C02D16F
:105490002B6803B1236038BDB003002038B5044643
:1054A000084611460022054D2A601A46FCF72DF8E1
:1054B000431C02D12B6803B1236038BDB003002028
:1054C00038B50446084611460022054D2A601A46A2
:1054D000FBF7BEFF431C02D12B6803B1236038BD2C
:1054E000B003002038B50446084611460022054D99
:1054F0002A601A46FBF7C9FF431C02D12B6803B18F
:10550000236038BDB0030020014B1868704700BF0E
:105510001800002070B500260C4D0D4C641BA41023
:10552000A64209D103F06AFB00260A4D0A4C641B0F
:10553000A410A64205D170BD55F8043B984701362A
:10554000EEE755F8043B98470136F2E70C91000866
:105550000C9100080C9100081091000870477047EA
:105560007047034610B5C9B202449342184601D1B0
:10557000002003E0047801338C42F6D110BD000016
:10558000004870470000C07F2DE9F74F03690C69A0
:105590000746A3427EDB013CA30000F1140501F1A4
:1055A0001408009305EB8403019358F8243055F850
:1055B000242001339A42B2FBF3F608EB84092ED380
:1055C0004FF0000AC446AE46D3465CF8043B98B29E
:1055D00006FB00A01B0C020C06FB0323DEF80020D8
:1055E00080B292B2121A5A44DEF800004FEA134A0F
:1055F0009BB2C3EB224303EB104392B242EA034255
:10560000E1454FEA234B4EF8042BDED2009BEB58CA
:105610002BB9019B043B9D421A462FD33C6138466F
:1056200001F0C8F9002825DB2946002058F8042B92
:10563000D1F800C01FFA82FE1FFA8CF3A3EB0E0311
:105640000344120CC2EB234202EB1C429BB243EA1E
:105650000243C1454FEA224041F8043BE6D255F8E7
:10566000242005EB840322B9043B9D421A460BD348
:105670003C610136304603B0BDE8F08F1268043B50
:10568000002ACBD1013CC6E71268043B002AEFD1C7
:10569000013CEAE70020EEE72DE9F04F14461D46F5
:1056A000C76997B08146CDE90645239E7FB9102092
:1056B00000F00EFE0246C9F81C0020B9EF21AC4BE9
:1056C000AC4802F027FCC0E901770760C760D9F851
:1056D0001C30196859B15A68012393404A608B60A5
:1056E000484600F0EBFE0022D9F81C301A602B1E51
:1056F000AFBF0023012223F000430793A8BF33600C
:10570000DDF81C809C4BB8BF326033EA080312D12D
:1057100042F20F73229A1360C8F31303234300F07D
:105720005E85249BDFF854A2002B00F060850AF10F
:10573000030300F05ABDDDE90623CDE90C23DDE9C2
:105740000C0100220023FBF72FF9074658B1012373
:10575000229A1360249B13B1894B249A1360DFF8BB
:1057600024A200F044BD14AB019315AB009348464E
:10577000DDE90C2301F036FAC8F30A560390002E37
:1057800078D0DDE90C010D9BA6F2FF36C3F31303BD
:1057900043F07F5343F440131297194600227A4B8B
:1057A000FAF7E2FC6CA3D3E90023FAF795FE6CA3A9
:1057B000D3E90023FAF7DAFC044630460D46FAF73F
:1057C00021FE69A3D3E90023FAF786FE02460B46C1
:1057D00020462946FAF7CAFC04460D46FBF72CF989
:1057E00000220746002320462946FBF7E7F840B190
:1057F0003846FAF707FE22462B46FBF7D5F800B9E4
:10580000013F162F54D8DDE90C01604B03EBC703B1
:10581000D3E90023FBF7D2F800284BD00023013F47
:105820000F93149B9B1B5A1E49BFC3F10103002316
:1058300004930023099254BF04930993002F3BDB88
:10584000099B0E973B44099300230A93209B092B45
:1058500065D8052BC4BF043B2093209BC8BF002400
:10586000A3F10203D8BF0124032B64D8DFE803F0BF
:105870005355382CDDE914631E4406F23243202BC5
:10588000C1BFC3F1400308FA03F806F2124324FA39
:1058900003F3D6BFC3F1200348EA030004FA03F080
:1058A000FAF7A0FD0122A1F1F873013E129274E70C
:1058B0000123B5E70F90B4E7049BDB1B04937B4205
:1058C0000A9300230E93C1E701230B93219B07EB5F
:1058D000030B0BF10103012B0893B8BF012306E072
:1058E00001230B93219B002B28DD9B46089300216D
:1058F0000422D9F81C0002F114059D4226D941600A
:10590000484600F09BFD8246002843D1024640F203
:10591000AF111F4BD4E60023E3E70023D5E70124B2
:1059200000230B9420934FF0FF3B00221223CDF86D
:1059300020B02192DBE701230B93F4E74FF0010B3A
:105940005B46CDF820B0CDF884B0D0E701315200ED
:10595000D1E700BFAFF3008061436F63A787D23FF9
:10596000B3C8608B288AC63FFB799F501344D33F4E
:10597000228D0008398D00080000F07F1E8D000880
:10598000ED8C0008EC8C00080000F83FE88E000861
:10599000918D0008D9F81C301860089B0E2B00F27E
:1059A000A180002C00F09E80002F33DD9C4B07F07F
:1059B0000F0203EBC203F805D3E90034CDE910343C
:1059C0004FEA271416D5DDE90C01964B0326D3E9DF
:1059D0000823FAF7ABFECDE9060104F00F04914D60
:1059E00054B9DDE91023DDE90601FAF79FFECDE9A0
:1059F000060128E00226F2E7E10708D5DDE91001FB
:105A0000D5E90023FAF768FDCDE9100101366410ED
:105A10000835E5E700F0AF80DDE90C017C42804B02
:105A200004F00F0203EBC203D3E90023FAF754FD9D
:105A300002260023CDE906017A4D2411002C40F006
:105A40008F80002BD3D1DDE906450F9B002B00F0A2
:105A50009480002220462946734BFAF7AFFF0028B6
:105A600000F08B80089B002B00F08780BBF1000FBB
:105A700034DD2046002229466C4BFAF72DFD5C46AA
:105A8000CDE9060107F1FF3801363046FAF7BAFCD6
:105A9000DDE90623FAF720FD0022654BFAF766FBE5
:105AA0000546A1F15076002C6AD1DDE906010022FD
:105AB000604BFAF759FB02460B46CDE906232A460E
:105AC0003346FAF799FF002840F09882DDE9060195
:105AD0002A4606F10043FAF771FF38BBDDE90C34C2
